:020000001729BE
:0E0006008312031322088A00210882000800DA
:100014000E3083120313FD00FD0B0E2800000800B0
:1000240083120313FB01FA01F9018030F800F10C8B
:10003400F00C031C26287408F90775080318750FBB
:10004400FA070318FB0A0310F01F2E287408FA0796
:1000540075080318750FFB07FB0CFA0CF90CF80C68
:10006400031C19287B08F3007A08F2007908F100D0
:060074007808F00008000E
:0C007A00831203139B011D129D1208004D
:0C00860083120313950117129712080053
:10009200831603130711831212150C3097040800FC
:1000A200831603138710831212150C309D04080067
:1000B200FF3083120313A300FF30A400FF30A5001A
:1000C200FF309F01C0309F042009F00070088316A2
:0C00D2009F051F179F1783121F140800C2
:1000DE00831603131208013EF000F1010318F10A12
:1000EE0083122808F400F50112200630F200700881
:1000FE00F4007108F500720803198A28F50CF40C47
:10010E00F513FF3E83280430F1007408F0007108E7
:10011E0003199528F00D7010FF3E8F2830307005B2
:10012E00F3007408F0007508F100F10CF00CF113F7
:10013E00F10CF00CF11370089B000F309D05730845
:04014E009D04080004
:10015200831603131208013EF000F1010318F10A9D
:1001620083122808F400F50112200630F20070080C
:10017200F4007108F50072080319C428F50CF40C98
:10018200F513FF3EBD280430F1007408F000710839
:100192000319CF28F00D7010FF3EC92830307005CA
:1001A200F3007408F0007508F100F10CF00CF11383
:1001B200F10CF00CF113700895000F3097057308DD
:0401C2009704080096
:1001C600831203139F01C0309F042009F0007008BA
:1001D60083169F051F179F1783122808F000F00D3E
:1001E6007010F00D7010F00D701070089F041F1441
:1001F6000A201F151F1D01290000FD281F101E08BB
:10020600F100F00183161E08F0040030F104080026
:1002160003208A110A128000840AA10A0319A20A7D
:08022600F003031D0B29080081
:10022E00EC218316031306108614880183128801AD
:10023E005920121492147C308316920043204920C8
:10024E00121492147C30831692003D205120861C8D
:10025E00E4290330A800E32070088312A600710879
:10026E00A70080307106F2008030023A7202031D40
:10027E00422958307002031C70290614A801A920C7
:10028E00A8016F2008101A30FC00F830FD00FD0B9D
:10029E004E29FC0B4E290000A801A920A8016F20B1
:1002AE0088101A30FC00F830FD00FD0B5C29FC0BA9
:1002BE005C290000A801A920A8016F2008111A309E
:1002CE00FC00F830FD00FD0B6A29FC0B6A290000CA
:1002DE00E32980302706F0008030013A7002031DBA
:1002EE007A29F4302602031CB62980302706F00046
:1002FE008030023A7002031D8629583026020318F8
:10030E00B6290614A801A920A8016F2008101A30DA
:10031E00FC00F830FD00FD0B9229FC0B9229000029
:10032E00A801A920A8016F2088101A30FC00F8300F
:10033E00FD00FD0BA029FC0BA0290000FF30A8003A
:10034E00A920FF30A8006F2008151A30FC00F830E5
:10035E00FD00FD0BB029FC0BB0290000E3290610AF
:10036E00FF30A800A920FF30A8006F2008141A3013
:10037E00FC00F830FD00FD0BC229FC0BC229000069
:10038E00A801A920A8016F2088101A30FC00F830AF
:10039E00FD00FD0BD029FC0BD0290000A801A920DF
:1003AE00A8016F2008111A30FC00F830FD00FD0B7B
:0E03BE00DE29FC0BDE2900002E292E29E52960
:1003D80020308400013083120313F000EB30A100B9
:0803E8000130A2000B21080006
:0203D6000F34E2
:02400E004A2F37
:00000001FF
